:100000000C94DD010C94FA010C94FA010C94FA01A1
:100010000C94E8070C94FA010C94FA010C94FA0180
:100020000C94FA010C94FA010C94FA010C94EC086B
:100030000C94FA010C94FA010C94FA010C94FA0154
:100040000C94FA010C94FA010C94FA010C94FA0144
:100050000C94FA01B705B905BB05BE05C405C60574
:100060004F06C905CB05CD05CF05005EBCE2613F5B
:10007000DD83C29C7E20A3FD1F419DC3217FFCA286
:10008000401E5F01E3BD3E6082DC237D9FC1421CB8
:10009000FEA0E1BF5D0380DE3C62BEE0025CDF816A
:1000A000633D7C22C09E1D43A1FF4618FAA4277918
:1000B0009BC584DA3866E5BB5907DB856739BAE446
:1000C00006581947A5FB7826C49A653BD987045A78
:1000D000B8E6A7F91B45C6987A24F8A6441A99C72A
:1000E000257B3A6486D85B05E7B98CD2306EEDB3D8
:1000F000510F4E10F2AC2F7193CD114FADF3702E06
:10010000CC92D38D6F31B2EC0E50AFF1134DCE9037
:10011000722C6D33D18F0C52B0EE326C8ED0530DE9
:10012000EFB1F0AE4C1291CF2D73CA947628ABF597
:1001300017490856B4EA6937D58B5709EBB53668C5
:100140008AD495CB2977F4AA4816E9B7550B88D6F7
:10015000346A2B7597C94A14F6A8742AC896154BA9
:10016000A9F7B6E80A54D7896B35546865726520DB
:10017000776173206572726F7221004D454E553A5A
:10018000004D454E553A004300D0A2D0B5D0BCD06A
:10019000BF3D202020202000342DD0B1D0B8D18206
:1001A000D0BDD18BD0B920D180D0B5D0B6D0B8D009
:1001B000BC008D03C301B201B201B4080000457850
:1001C000697400B201E001C301C3012D03000052B4
:1001D0004541445F524F4D20746F205541525400A9
:1001E000C3018002E001E001C00900004453205334
:1001F0004541524348524F4D00680216028002F9B1
:1002000001DB0400003E20437572736F7220746F2F
:10021000205541525400F901300280021602C908EB
:1002200000003E204C696E652C20626C696E6B008C
:1002300016024D0280023002C30800003E204C69C5
:100240006E652C206E6F20626C696E6B00300268E8
:100250000280024D02BD0800003E20426C6F636BBD
:100260002C20626C696E6B004D02F90180026802FD
:10027000B70800003E204E6F20637572736F7200E6
:10028000E0018D0380026802000000004C4344201E
:1002900053657474696E67732020203E007003BA42
:1002A000028D039D021303000053746F7020202001
:1002B00020202020202020203E009D022A038D03A4
:1002C000BA021003000053746172742020202020B1
:1002D00020202020203E001603EC022A03D70286AD
:1002E0000800003E2031322062697400D702010309
:1002F0002A03EC026A0800003E2031312062697452
:1003000000EC0216032A0301034E0800003E2031D0
:100310003020626974000103D7022A0316033208F1
:1003200000003E20392062697400BA0270038D0318
:10033000160300000000436F6E76657274206269D8
:1003400074732020203E005C035C0370034703AB02
:100350000800003E203130207365630047034703E7
:1003600070035C03A20800003E2031207365630027
:100370002A039D028D035C03000000004D6561733C
:1003800075726520506572696F64203E008002B20C
:10039000018D037003000000004453205365747402
:1003A000696E6773202020203E00000000000000DE
:1003B0000000000000004E2F410011241FBECFE5B9
:1003C000D4E0DEBFCDBF10E0A0E6B0E0E6EEF3E1A2
:1003D00002C005900D92AA39B107D9F720E0AAE929
:1003E000B0E001C01D92AD3EB207E1F70E940C08DB
:1003F0000C94F1090C9400008A9A92988FEB93E088
:100400000197F1F700C00000929A90EA9A95F1F7EF
:100410008A98829909C08FEB93E00197F1F700C0A9
:10042000000081E090E008958FEB93E00197F1F7F1
:1004300000C0000080E090E008958A9A9298892B8D
:1004400059F088E28A95F1F7929A98E79A95F1F730
:1004500088E08A95F1F7089587EC90E00197F1F72D
:1004600000C00000929A98E09A95F1F7089528E06C
:1004700030E08A9A929880FF08C048E24A95F1F7E6
:10048000929AE8E7EA95F1F707C0E7ECF0E03197D8
:10049000F1F700C00000929AF8E0FA95F1F796950E
:1004A0008795215031092115310519F708958A9A48
:1004B000929888E08A95F1F7929A92E19A95F1F7ED
:1004C00000C08A9880B390EA9A95F1F782FB88275A
:1004D00080F908951F93CF93DF93C0E0D0E010E040
:1004E0000E945702282F0C2E01C0220F0A94EAF70F
:1004F000122B2196C830D10599F7812FDF91CF912A
:100500001F9108950E94FC018CEC90E00E9437023C
:1005100084E490E00C943702CF93DF930E94FC01B7
:100520008CEC90E00E9437028EEB90E00E94370244
:100530000E946A02D82F0E946A02C82F0E94FC0102
:100540004D2F50E05C2BEA01DF7053FF14C084E0B4
:100550000E945F069E0120958FE038272F5F3F4F56
:10056000C90195958795E3E035952795EA95E1F7DB
:10057000820F931F0AC0CE019595879563E0D595AC
:10058000C7956A95E1F78C0F9D1FDF91CF91089574
:10059000DF92EF92FF920F931F93CF93DF9300D0E0
:1005A0001F92CDB7DEB70E948C02F82E24E030E017
:1005B000FDE2EF2EAEE2DA2E0AE010E084E02983BD
:1005C0003A839B830E948E0629813A819B818823EE
:1005D00031F0F901E256FF4FE0822150310923301A
:1005E000310521F4D092A10022E030E0F901E25679
:1005F000FF4F8F2DB8010E94D70980638083F62EAC
:10060000972F2150310937FFD9CF0F900F900F90BE
:10061000DF91CF911F910F91FF90EF90DF900895A0
:100620001092A800089583E68093A8000895109280
:100630009C0027E030E0FC01E20FF31FE0814091D5
:100640009C00E427F0E0E659FF4FE491E0939C0022
:100650002150310980F78E2F0895EF92FF920F936A
:100660001F93CF93DF93CDB7DEB728970FB6F894DB
:10067000DEBF0FBECDBFCE0101967C010E94FC0102
:1006800083E390E00E9437028E01075F1F4F0E94B4
:100690006A02F80182938F01EE15FF05C1F7CF01C1
:1006A0000E9417038111EACF7E01F9E0EF0EF11CE1
:1006B000F80181918F010E94FD080E151F05C1F7F9
:1006C00087E00E94660628960FB6F894DEBF0FBE3C
:1006D000CDBFDF91CF911F910F91FF90EF900895C3
:1006E00010929D00089586E00E949A06882331F0BA
:1006F00080919D008093A8008FEF07C087E00E9443
:100700009A06882321F08091A80080939D00809113
:100710009D00813051F018F08230D1F0089581E0D1
:1007200080939D0086E00C94C20686E00E94B0068D
:10073000209161003091620082179307E0F00E94DF
:10074000820286E00E94B90682E080939D000895AF
:1007500086E00E94B0062091600030E08217930787
:1007600050F00E94C80280E00E945F0686E00E946E
:10077000D30610929D00089524B390916500909542
:10078000922394BB94B3976094BBA898A99A22E053
:100790002A95F1F700C0AA9A92E09A95F1F700C065
:1007A000909165004091AA0023B3292330E0042EE4
:1007B00002C0359527950A94E2F7232BA9F7AA984A
:1007C00094B320916500922B94BBA998613011F4E9
:1007D000A89A01C0A89845B3282F22952F70909110
:1007E000AA00935001C0220F9A95EAF790916500F4
:1007F00090959423922B95BBAA9A22E02A95F1F723
:1008000000C0AA9828E72A95F1F720916500209565
:1008100029238F703091AA003350032E01C0880F16
:100820000A94EAF7282B25BBAA9A82E08A95F1F769
:1008300000C0AA9898E79A95F1F7089560E00C94A3
:10084000BC0361E00C94BC03CF93DF93EC0188817F
:10085000882389F0803D58F099812296813D11F4DA
:1008600080E701C080E3890F0E942104F0CF0E943D
:1008700021042196ECCFDF91CF9108950F931F9320
:10088000CF93DF93FC0124912223D1F02491EF0137
:100890002196203D80F024918F010E5F1F4FFE01B5
:1008A000213D19F48491805902C08491805D0E9499
:1008B0002104F801E8CF84910E942104FE01E3CFD6
:1008C000DF91CF911F910F9108958F9A9798209162
:1008D0006500922F83E031E0380F9F3019F0969534
:1008E000832FF9CF8093AA0084B3822B84BB84B377
:1008F000876084BB2FEF80E792E0215080409040DA
:10090000E1F700C00000A898A998AA9880E385BBE9
:10091000AA9A22E02A95F1F700C0AA988FE19EE4F6
:100920000197F1F700C0000080E385BBAA9A92E02E
:100930009A95F1F700C0AA988FE891E00197F1F736
:1009400000C0000080E385BBAA9A92E09A95F1F777
:1009500000C0AA9825ED2A95F1F7000080E285BB3A
:10096000AA9A82E08A95F1F700C0AA9887EC90E0F5
:100970000197F1F700C000008AE20E941E048FE098
:100980000E941E0486E00E941E0481E00E941E0454
:1009900082E00E941E0488E991E00E943E049FEFDD
:1009A00024E38CE0915020408040E1F700C000003B
:1009B00081E00C941E04CF93DF93A89AA99A84B384
:1009C00090916500892B84BB82E08A95F1F700C085
:1009D000AA9A82E08A95F1F700C023B3809165005E
:1009E000282330E08091AA00835002C035952795D6
:1009F0008A95E2F7AA9888E78A95F1F7AA9A82E0A1
:100A00008A95F1F700C0C3B380916500C823D0E098
:100A10008091AA00835002C0D595C7958A95E2F7C8
:100A2000AA9888E78A95F1F7D22FD295D07FDC2B50
:100A3000822F0E94FD088C2F0E94FD088D2F0E949E
:100A4000FD088D2FDF91CF910895811102C080E8BC
:100A500001C080EC860F0C941E040F931F93CF935C
:100A6000DF93C82F8B01811103C080E40E941E0414
:100A70008C2F880F880F880F805C0E941E04E8016D
:100A800000E010E089910E9421040F5F1F4F0830A1
:100A90001105C1F7DF91CF911F910F91089581E06A
:100AA0000E941E0489E891E00E943E0480EB0E94AF
:100AB000210487E891E00E943E0485E80E941E041C
:100AC0008EE990E00C9424041092A90087E00C9425
:100AD000C20687E00E949A06882389F01092A90036
:100AE0008FEC0E941E0487E10E9421042FEF81EE0B
:100AF00094E0215080409040E1F700C000008091D8
:100B0000A9008A3009F44DC08B3009F46AC0811104
:100B1000BFC087E00E94B00620916300309164005E
:100B20008217930720F0979887E00E94D30680E011
:100B30000E948E0681110E944F0585E00E948E065C
:100B4000882309F4ACC087E00E94C20687E00E94B7
:100B5000B906979A0E94770790E0FC013197EB3035
:100B6000F10508F09CC0E65DFF4F0C94EB090C9476
:100B7000DB0480E101C084E10C941E048AE08093D0
:100B8000A90086E00C94660685E301C086E30C9418
:100B9000210488E3FCCF89E3FACF81E4F8CF82E433
:100BA000F6CF87E00E94B006209163003091640088
:100BB0008217930720F0979887E00E94D30681E080
:100BC0000E941E0481E891E00E943E0480EC0E9495
:100BD0001E048DE893E00E94D4088BE08093A90066
:100BE000089587E00E94B006209163003091640070
:100BF0008217930720F0979887E00E94D30685E03C
:100C00000E948E06882309F44AC087E00E94C2062B
:100C100087E00E94B906979A81E00E941E048BE744
:100C200091E00E943E0480EC0E941E040E9477071F
:100C30008330B9F028F4813041F0823061F00895BA
:100C40008430A1F08730D9F00895E091DE00F09172
:100C5000DF00349610C0E091DE00F091DF003296A4
:100C60000AC0E091DE00F091DF0005C0E091DE00F7
:100C7000F091DF003696859194910C94D408E09120
:100C8000DE00F091DF003896859194910C94CF08A6
:100C900081E00E941E048AE691E00C943E040895CF
:100CA000E5EBF0E0119280E0EF3BF807D9F7EBEAD3
:100CB000F0E0119280E0E53BF807D9F70895E82FBE
:100CC000F0E0EB54FF4F81E080830895E82FF0E0DF
:100CD000E555FF4F81E080830895E5EBF0E082E089
:100CE0009081923009F410829081913009F48083D0
:100CF000319690E0EF3BF90799F7EBEAF0E082E0FC
:100D00009081923009F410829081913009F48083AF
:100D1000319690E0E53BF90799F70895E82FF0E068
:100D2000EB54FF4F8081823019F4108281E00895E6
:100D300080E00895E82FF0E0E555FF4F81E09081D5
:100D4000923009F080E00895EFEBF0E0A3EDB0E021
:100D5000119211921D9280E0E33DF807C9F70895C2
:100D6000E82FF0E0EE0FFF1FE154FF4F80819181EB
:100D70000895E82FF0E0EE0FFF1FE154FF4F1182BE
:100D800010820895E82FF0E0DF01AD52BF4F8C9143
:100D9000811108C0EE0FFF1FE154FF4F1182108236
:100DA00081E08C930895E82FF0E0ED52FF4F108220
:100DB0000895E82FF0E0ED52FF4F8081813011F46B
:100DC00082E080830895E82FF0E0ED52FF4F8081AC
:100DD000823011F481E080830895A7EDB0E0E7EC64
:100DE000F0E08D91813029F4808191810196918389
:100DF0008083329680E0AD3DB80799F78091C700B7
:100E00009091C8008A3F910569F48091BF0090914C
:100E1000C00001969093C0008093BF001092C8005C
:100E20001092C7008091BF009091C000CC9769F4E8
:100E30008091C1009091C20001969093C20080936E
:100E4000C1001092C0001092BF008091C10090912B
:100E5000C200CC9769F48091C3009091C4000196C0
:100E60009093C4008093C3001092C2001092C100FE
:100E70008091C3009091C400489769F48091C500A7
:100E80009091C60001969093C6008093C500109281
:100E9000C4001092C30082E884BD0895D398D4980A
:100EA000DC9A8AB380668ABB8BB380668BBB85E095
:100EB0000E94C2061092DD0008958BB38FED8BBBAC
:100EC000000000000000000099B38BB38FEB8BBBD8
:100ED000000000000000000089B39877990F887720
:100EE000869586958695892B80939A000895E09142
:100EF0009A00E458E43328F4F0E0EA59FF4F808187
:100F000008958FEF08958091DD00823021F128F45B
:100F1000882349F08130A9F00895833061F184304D
:100F200009F442C008950E945D0780919A00873BB2
:100F300009F44DC080939B0085E00E94B90681E0D2
:100F400007C085E00E94B006059708F440C082E023
:100F50008093DD0008950E945D0790919A00809132
:100F60009B00981310C085E00E945F0685E00E94F8
:100F7000B90683E0EDCF0E945D0790919A008091C1
:100F80009B00981719F01092DD00089585E00E94EB
:100F9000B0068D379105D8F085E00E94B90685E04E
:100FA0000E945F0684E0D4CF0E945D0790919A0072
:100FB00080919B009813E7CF85E00E94B006499787
:100FC00030F085E00E94B90685E00C945F06089534
:100FD0001F920F920FB60F9211242F933F934F93AE
:100FE0005F936F937F938F939F93AF93BF93EF9391
:100FF000FF930E94ED06FF91EF91BF91AF919F91FA
:101000008F917F916F915F914F913F912F910F90B1
:101010000FBE0F901F90189583E390E00E94F60892
:101020000E9465040E94A4060E9450060E9470035C
:101030000E9464050E944E078EE394E09093E100C5
:101040008093E00086E085BD82E884BD80E489BFAE
:1010500078940E9469050E9473030E9483070E948E
:101060006D06F7CF0E94FC018CEC90E00E943702E5
:101070008EE490E00E94370280E090E00E94370208
:1010800080E090E00E9437028FE190E00E943702FA
:1010900088E18093600087E00C9466060E94FC0162
:1010A0008CEC90E00E9437028EE490E00E943702C0
:1010B00080E090E00E94370280E090E00E943702DA
:1010C0008FE390E00E9437028FE28093600087E018
:1010D0000C9466060E94FC018CEC90E00E943702A2
:1010E0008EE490E00E94370280E090E00E94370298
:1010F00080E090E00E9437028FE590E00E94370286
:101100008EE58093600087E00C9466060E94FC01E7
:101110008CEC90E00E9437028EE490E00E9437024F
:1011200080E090E00E94370280E090E00E94370269
:101130008FE790E00E9437028CEB8093600087E09D
:101140000C94660681E090E09093620080936100C9
:1011500087E00C94660684EC99E09093620080939B
:10116000610087E00C94660687E00C9466068CE0CC
:101170000E941E0487E00C9466068DE00E941E0407
:1011800087E00C9466068EE00E941E0487E00C94B3
:1011900066068FE00E941E0487E00C9466060097A6
:1011A00011F0FC010994089523E08A3A920799F01E
:1011B0009093DF008093DE00E091E000F091E10089
:1011C0000C960995E091DE00F091DF003A9685914A
:1011D00094910C94CF0808951F920F920FB60F921E
:1011E00011240F900FBE0F901F90189590BD89B9D4
:1011F00088E18AB986E880BD08955D9BFECF8CB9F1
:101200000895CF93DF93EC018991882319F00E9410
:10121000FD08FACFDF91CF9108950F931F93CF93DD
:10122000DF93EC01FE0184918823A1F0FE018491FB
:101230008E010F5F1F4F803D38F0F8018491805D73
:101240000E94FD082296EECFFE0184910E94FD08C7
:10125000E801E8CFDF91CF911F910F910895E091C0
:101260009C00E827F0E0E659FF4F849180939C00B2
:101270000895FF920F931F93CF93DF9310929C00DA
:101280008091EB00811161C00E94FC01892B09F45F
:101290005CC080EF90E00E943702D1E010E0F12CBA
:1012A000C1E00E945702082F0E945702013019F432
:1012B0008130C1F43CC0212F30E008131DC0809163
:1012C000EC00C81738F4F901EE51FF4F80818D23EF
:1012D00049F402C0C81731F000E0C93060F4C0938F
:1012E000EA0009C0E12FF0E0EE51FF4F80818D2B25
:1012F000808301E009C0FC2EF901EE51FF4F80818F
:101300009D2F909589238083802F90E00E941D025D
:10131000CF5FDD0F49F4E12FF0E0EE51FF4F808108
:101320000E942F091F5FD1E0183008F4BACFC134F2
:1013300060F080919C00811108C0F092EC00F110E7
:101340000CC081E08093EB0008C01092EC0010927A
:10135000EB001092EA0080E005C08091E200882353
:10136000A1F381E0DF91CF911F910F91FF9008953C
:101370001092EC001092EB001092EA000C943909E4
:10138000CF93DF930E94B809882361F0C2EED0E0CA
:1013900089910E94FD080E94B80990E0CA3ED907D1
:1013A000B9F7F2CFDF91CF9108950C943909AA1BB8
:1013B000BB1B51E107C0AA1FBB1FA617B70710F040
:1013C000A61BB70B881F991F5A95A9F78095909572
:1013D000BC01CD010895EE0FFF1F0590F491E02DA3
:0613E0000994F894FFCF10
:1013E600BCFA00E204780BFFFF0AFFFFFFFFFFFFD6
:1013F600FFFFFFFFFFFFFF060803FFFFFFFFFFFFE3
:10140600FFFFFFFFFFFFFF070904FFFFFFFFFFFFCF
:0A141600FFFFFFFFFFFF05010200CA
:00000001FF
